{
  "contractName": "Bank",
  "abi": [
    {
      "anonymous": false,
      "inputs": [
        {
          "indexed": true,
          "internalType": "uint256",
          "name": "accountNumber",
          "type": "uint256"
        },
        {
          "indexed": false,
          "internalType": "string",
          "name": "name",
          "type": "string"
        }
      ],
      "name": "AccountCreated",
      "type": "event"
    },
    {
      "inputs": [
        {
          "internalType": "uint256",
          "name": "",
          "type": "uint256"
        }
      ],
      "name": "accounts",
      "outputs": [
        {
          "internalType": "string",
          "name": "name",
          "type": "string"
        },
        {
          "internalType": "uint256",
          "name": "accountNumber",
          "type": "uint256"
        },
        {
          "internalType": "uint256",
          "name": "balance",
          "type": "uint256"
        },
        {
          "internalType": "uint256",
          "name": "pin",
          "type": "uint256"
        },
        {
          "internalType": "bool",
          "name": "exists",
          "type": "bool"
        }
      ],
      "stateMutability": "view",
      "type": "function",
      "constant": true
    },
    {
      "inputs": [
        {
          "internalType": "string",
          "name": "_name",
          "type": "string"
        },
        {
          "internalType": "uint256",
          "name": "_accountNumber",
          "type": "uint256"
        },
        {
          "internalType": "uint256",
          "name": "_initialDeposit",
          "type": "uint256"
        },
        {
          "internalType": "uint256",
          "name": "_pin",
          "type": "uint256"
        }
      ],
      "name": "createAccount",
      "outputs": [],
      "stateMutability": "nonpayable",
      "type": "function"
    },
    {
      "inputs": [
        {
          "internalType": "uint256",
          "name": "_accountNumber",
          "type": "uint256"
        },
        {
          "internalType": "uint256",
          "name": "_pin",
          "type": "uint256"
        }
      ],
      "name": "checkBalance",
      "outputs": [
        {
          "internalType": "uint256",
          "name": "",
          "type": "uint256"
        }
      ],
      "stateMutability": "view",
      "type": "function",
      "constant": true
    }
  ],
  "bytecode": "0x608060405234801561001057600080fd5b50610976806100206000396000f3fe608060405234801561001057600080fd5b50600436106100415760003560e01c80632a1d36c414610046578063b471f40a14610062578063f2a40db814610092575b600080fd5b610060600480360381019061005b91906104c5565b6100c6565b005b61007c60048036038101906100779190610569565b610201565b6040516100899190610798565b60405180910390f35b6100ac60048036038101906100a79190610540565b6102da565b6040516100bd9594939291906106de565b60405180910390f35b60008084815260200190815260200160002060040160009054906101000a900460ff1615610129576040517f08c379a000000000000000000000000000000000000000000000000000000000815260040161012090610778565b60405180910390fd5b6040518060a001604052808581526020018481526020018381526020018281526020016001151581525060008085815260200190815260200160002060008201518160000190805190602001906101819291906103a5565b5060208201518160010155604082015181600201556060820151816003015560808201518160040160006101000a81548160ff021916908315150217905550905050827f4406213a6636a645b4f8ae705de381db1cd81c92d6a1b1b7bebefc6f41598d4a856040516101f391906106bc565b60405180910390a250505050565b600080600084815260200190815260200160002060040160009054906101000a900460ff16610265576040517f08c379a000000000000000000000000000000000000000000000000000000000815260040161025c90610758565b60405180910390fd5b8160008085815260200190815260200160002060030154146102bc576040517f08c379a00000000000000000000000000000000000000000000000000000000081526004016102b390610738565b60405180910390fd5b60008084815260200190815260200160002060020154905092915050565b60006020528060005260406000206000915090508060000180546102fd90610888565b80601f016020809104026020016040519081016040528092919081815260200182805461032990610888565b80156103765780601f1061034b57610100808354040283529160200191610376565b820191906000526020600020905b81548152906001019060200180831161035957829003601f168201915b5050505050908060010154908060020154908060030154908060040160009054906101000a900460ff16905085565b8280546103b190610888565b90600052602060002090601f0160209004810192826103d3576000855561041a565b82601f106103ec57805160ff191683800117855561041a565b8280016001018555821561041a579182015b828111156104195782518255916020019190600101906103fe565b5b509050610427919061042b565b5090565b5b8082111561044457600081600090555060010161042c565b5090565b600061045b610456846107e4565b6107b3565b90508281526020810184848401111561047357600080fd5b61047e848285610846565b509392505050565b600082601f83011261049757600080fd5b81356104a7848260208601610448565b91505092915050565b6000813590506104bf81610929565b92915050565b600080600080608085870312156104db57600080fd5b600085013567ffffffffffffffff8111156104f557600080fd5b61050187828801610486565b9450506020610512878288016104b0565b9350506040610523878288016104b0565b9250506060610534878288016104b0565b91505092959194509250565b60006020828403121561055257600080fd5b6000610560848285016104b0565b91505092915050565b6000806040838503121561057c57600080fd5b600061058a858286016104b0565b925050602061059b858286016104b0565b9150509250929050565b6105ae81610830565b82525050565b60006105bf82610814565b6105c9818561081f565b93506105d9818560208601610855565b6105e281610918565b840191505092915050565b60006105fa600b8361081f565b91507f496e76616c69642050696e0000000000000000000000000000000000000000006000830152602082019050919050565b600061063a60168361081f565b91507f4163636f756e7420646f6573206e6f74206578697374000000000000000000006000830152602082019050919050565b600061067a60168361081f565b91507f4163636f756e7420616c726561647920657869737473000000000000000000006000830152602082019050919050565b6106b68161083c565b82525050565b600060208201905081810360008301526106d681846105b4565b905092915050565b600060a08201905081810360008301526106f881886105b4565b905061070760208301876106ad565b61071460408301866106ad565b61072160608301856106ad565b61072e60808301846105a5565b9695505050505050565b60006020820190508181036000830152610751816105ed565b9050919050565b600060208201905081810360008301526107718161062d565b9050919050565b600060208201905081810360008301526107918161066d565b9050919050565b60006020820190506107ad60008301846106ad565b92915050565b6000604051905081810181811067ffffffffffffffff821117156107da576107d96108e9565b5b8060405250919050565b600067ffffffffffffffff8211156107ff576107fe6108e9565b5b601f19601f8301169050602081019050919050565b600081519050919050565b600082825260208201905092915050565b60008115159050919050565b6000819050919050565b82818337600083830152505050565b60005b83811015610873578082015181840152602081019050610858565b83811115610882576000848401525b50505050565b600060028204905060018216806108a057607f821691505b602082108114156108b4576108b36108ba565b5b50919050565b7f4e487b7100000000000000000000000000000000000000000000000000000000600052602260045260246000fd5b7f4e487b7100000000000000000000000000000000000000000000000000000000600052604160045260246000fd5b6000601f19601f8301169050919050565b6109328161083c565b811461093d57600080fd5b5056fea2646970667358221220565e079e1524da9fe11af8ad113cdadfb005a28aaf69c55e5ab4f1b4fab3d58264736f6c63430008000033",
  "immutableReferences": {},
  "source": "// SPDX-License-Identifier: MIT\r\npragma solidity ^0.8.0;\r\n\r\ncontract Bank {\r\n    struct Account {\r\n        string name;\r\n        uint256 accountNumber;\r\n        uint256 balance;\r\n        uint256 pin;\r\n        bool exists;\r\n    }\r\n\r\n    mapping(uint256 => Account) public accounts;\r\n\r\n    event AccountCreated(uint256 indexed accountNumber, string name);\r\n\r\n    function createAccount(\r\n        string memory _name,\r\n        uint256 _accountNumber,\r\n        uint256 _initialDeposit,\r\n        uint256 _pin\r\n    ) public {\r\n        require(!accounts[_accountNumber].exists, \"Account already exists\");\r\n\r\n        accounts[_accountNumber] = Account({\r\n            name: _name,\r\n            accountNumber: _accountNumber,\r\n            balance: _initialDeposit,\r\n            pin: _pin,\r\n            exists: true\r\n        });\r\n\r\n        emit AccountCreated(_accountNumber, _name);\r\n    }\r\n\r\n    function checkBalance(\r\n        uint256 _accountNumber,\r\n        uint256 _pin\r\n    ) public view returns (uint256) {\r\n        require(accounts[_accountNumber].exists, \"Account does not exist\");\r\n        require(accounts[_accountNumber].pin == _pin, \"Invalid Pin\");\r\n        return accounts[_accountNumber].balance;\r\n    }\r\n}\r\n",
  "sourcePath": "C:\\Users\\deepa\\OneDrive\\Desktop\\VOIS\\Blockchain\\BankDApp\\contracts\\Bank.sol",
  "compiler": {
    "name": "solc",
    "version": "0.8.0+commit.c7dfd78e.Emscripten.clang"
  },
  "schemaVersion": "3.4.16",
  "updatedAt": "2025-02-06T20:21:00.128Z",
  "networkType": "ethereum",
  "devdoc": {
    "kind": "dev",
    "methods": {},
    "version": 1
  },
  "userdoc": {
    "kind": "user",
    "methods": {},
    "version": 1
  }
}